S0170000454550524F4D204669726D776172652E73726563E8
S11300000C942A000C9447000C9447000C9447006D
S11300100C9447000C9447000C9447000C94470040
S11300200C9447000C9447000C9447000C94470030
S11300300C9447000C9447000C9447000C94470020
S11300400C9447000C9447000C9447000C94470010
S11300500C94470011241FBECFE5D8E0DEBFCDBF0E
S113006010E0A0E6B0E0E8E3F4E002C005900D92F1
S1130070A639B107D9F720E0A6E9B0E001C01D9286
S1130080A639B207E1F70E9449000C941A020C94B5
S113009000000E94C6010E9451010E94C000FDCFD1
S11300A00F931F93CF93DF93CDB7DEB728970FB687
S11300B0F894DEBF0FBECDBF80E690E00E94D6016B
S11300C000E010E040E1BE016F5F7F4FC8010E9475
S11300D0E50189E790E00E94D601CE0101960E94D5
S11300E0D6018DE790E00E94D601C8010E942F013D
S11300F040E1BE016F5F7F4F90E00E94E501CE01B9
S113010001960E94D6018BE890E00E94D6010F5F11
S11301101F4F011581E01807A9F683E890E00E94BB
S1130120D60128960FB6F894DEBF0FBECDBFDF917F
S1130130CF911F910F910895FC01618170E0762F9A
S113014066278281682B8081823761F0873719F0B6
S1130150813689F40DC083810E94060180E30E94E8
S1130160D2010895CB010E942F010E94D20108956B
S11301700E94500008958DE890E00E94D6010895F1
S1130180CF93DF9300D000D0CDB7DEB710E00E944C
S1130190CE01E1E0F0E0EC0FFD1FE10FF11D8083E3
S11301A0133031F4CE0101960E949C0010E0EFCF91
S11301B01F5FEDCF97980895979A0895969808959C
S11301C0969A089595980895959A08950E94DC004A
S11301D00E94E0000E94E4008FEF8ABB87BB84BBCF
S11301E01BBA18BA15BA089581B3806E81BB0895FD
S11301F01ABA86E69EE00197F1F7000089B30895E4
S11302002FEF27BB24BB95BB88BB08950F931F9387
S1130210CF93C82F8B010E94F4000E94E6000E9435
S1130220E400C8010E9400010E94DA0083E393E71E
S11302300197F1F70E94DE008FEF8ABBCBBB0E94CF
S1130240E0000E94DC000E94E6000E94DC000E94A4
S1130250E4000E94E000CF911F910F910895CF9385
S1130260DF93EC010E94E6000E94E2000E94DA00A3
S11302700E94E000CE010E94000186E69EE0019704
S1130280F1F700000E94F800C82F0E94DC000E94D1
S1130290E4000E94E0000E94E6008C2FDF91CF91E1
S11302A008951F93CF93DF930E94F4000E94E60009
S11302B085E595E50E940001CFEFCABB1AEA1BBB96
S11302C00E94DA000E94DE0086E69EE00197F1F7C4
S11302D000000E94E6008AEA9AE20E940001CABB7A
S11302E0D5E5DBBB0E94DA000E94DE0086E69EE0D4
S11302F00197F1F700000E94E60085E595E50E946C
S11303000001CABB80E88BBB0E94DA000E94DE00B9
S113031086E69EE00197F1F700000E94E60085E57D
S113032095E50E940001CABB1BBB0E94DA000E9433
S1130330DE0086E69EE00197F1F700000E94E600E9
S11303408AEA9AE20E940001CABBDBBB0E94DA007F
S11303500E94DE0086E69EE00197F1F700000E940D
S1130360E60085E595E50E940001CABB80E28BBBEF
S11303700E94DA000E94DE008FEF9FE80197F1F7F8
S113038000C00000DF91CF911F91089510BC87E158
S113039089B988E18AB986E880BD08955F9BFECF5C
S11303A08CB108955D9BFECF8CB90895CF93DF93F4
S11303B0EC018881882331F021960E94D201899131
S11303C08111FBCFDF91CF910895BB274A3031F4DF
S11303D0992322F4BDE2909581959F4F0C94F101ED
S11303E0BB27FB015527AA27880F991FAA1FA4170B
S11303F010F0A41B83955051B9F7A05DAA3308F0FF
S1130400A95DA193009779F7B111B1931192CB0132
S11304100C940A02DC01FC01672F71917723E1F748
S1130420329704C07C916D9370836291AE17BF07BD
S10B0430C8F30895F894FFCF0E
S11304380D52656164696E672066726F6D2045456B
S113044850524F4D2E2E2E0A000D307800203A209F
S11304583078000D446F6E65210D0A0A000D45724F
S1090468726F720A00002D
S9030000FC
