S0170000454550524F4D204669726D776172652E73726563E8
S11300000C942A000C9447000C9447000C9447006D
S11300100C9447000C9447000C9447000C94470040
S11300200C9447000C9447000C9447000C94470030
S11300300C9447000C9447000C9447000C94470020
S11300400C9447000C9447000C9447000C94470010
S11300500C94470011241FBECFE5D8E0DEBFCDBF0E
S113006010E0A0E6B0E0ECE2F3E002C005900D92EF
S1130070A239B107D9F720E0A2E9B0E001C01D928E
S1130080AA39B207E1F70E9449000C9494010C9438
S113009000000E9440010E94F9000E94480180E68D
S11300A090E00E945001C0E0D0E040E162E970E0DD
S11300B0CE010E945F018DE790E00E94500182E929
S11300C090E00E94500181E890E00E945001CE012E
S11300D00E94D70040E162E970E090E00E945F0175
S11300E082E990E00E9450018FE890E00E94500164
S11300F02196C11586E0D807C1F687E890E00E94F2
S11301005001CBCF97980895979A0895969808959B
S1130110969A089595980895959A08950E94840052
S11301200E9488000E948C008FEF8ABB87BB84BB2F
S11301301BBA18BA15BA089581B3806E81BB0895AD
S11301401ABA86E69EE00197F1F7000089B3089594
S11301502FEF27BB24BB95BB88BB08950F931F9338
S1130160CF93C82F8B010E949C000E948E000E9496
S11301708C00C8010E94A8000E94820083E393E7D8
S11301800197F1F70E9486008FEF8ABBCBBB0E94D8
S113019088000E9484000E948E000E9484000E94B5
S11301A08C000E948800CF911F910F910895CF93E6
S11301B0DF93EC010E948E000E948A000E9482005C
S11301C00E948800CE010E94A80086E69EE0019766
S11301D0F1F700000E94A000C82F0E9484000E9432
S11301E08C000E9488000E948E008C2FDF91CF919A
S11301F0089565E575E58AEA0E94AE0086E69EE00C
S11302000197F1F700006AEA7AE285E50E94AE0000
S113021086E69EE00197F1F7000065E575E580E864
S11302200E94AE0086E69EE00197F1F7000065E5C6
S113023075E58AEA0E94AE0086E69EE00197F1F732
S113024000006AEA7AE285E50E94AE0086E69EE056
S11302500197F1F7000065E575E580E20E94AE00C4
S113026086E69EE00197F1F7000060E070E080E030
S11302700E94AE0086E69EE00197F1F70000089523
S113028010BC87E189B988E18AB986E880BD089500
S11302905F9BFECF8CB108955D9BFECF8CB9089512
S11302A0CF93DF93EC018881882331F021960E945B
S11302B04C0189918111FBCFDF91CF910895BB2728
S11302C04A3031F4992322F4BDE2909581959F4FF1
S11302D00C946B01BB27FB015527AA27880F991F94
S11302E0AA1FA41710F0A41B83955051B9F7A05D61
S11302F0AA3308F0A95DA193009779F7B111B193DE
S11303001192CB010C948401DC01FC01672F7191E3
S11303107723E1F7329704C07C916D9370836291E7
S10F0320AE17BF07C8F30895F894FFCF90
S113032C0A0A0A0A0D52656164696E672066726F67
S113033C6D20454550524F4D2E2E2E0A000D30780F
S113034C00203A203078000D446F6E65210D0A0AA6
S105035C00009B
S9030000FC
