S0170000454550524F4D204669726D776172652E73726563E8
S11300000C942A000C9447000C9447000C9447006D
S11300100C9447000C9447000C9447000C94470040
S11300200C9447000C9447000C9447000C94470030
S11300300C9447000C9447000C9447000C94470020
S11300400C9447000C9447000C9447000C94470010
S11300500C94470011241FBECFE5D8E0DEBFCDBF0E
S113006010E0A0E6B0E0ECEDF3E002C005900D92E4
S1130070A639B107D9F720E0A6E9B0E001C01D9286
S1130080A639B207E1F70E9449000C94EC010C94E4
S113009000000E9498010E9451010E94C000FDCFFF
S11300A00F931F93CF93DF93CDB7DEB728970FB687
S11300B0F894DEBF0FBECDBF80E690E00E94A80199
S11300C000E010E040E1BE016F5F7F4FC8010E9475
S11300D0B70189E790E00E94A801CE0101960E9431
S11300E0A8018DE790E00E94A801C8010E942F0199
S11300F040E1BE016F5F7F4F90E00E94B701CE01E7
S113010001960E94A8018BE890E00E94A8010F5F6D
S11301101F4F011581E01807A9F683E890E00E94BB
S1130120A80128960FB6F894DEBF0FBECDBFDF91AD
S1130130CF911F910F910895FC01618170E0762F9A
S113014066278281682B8081823761F0873719F0B6
S1130150813689F40DC083810E94060180E30E94E8
S1130160A4010895CB010E942F010E94A4010895C7
S11301700E94500008958DE890E00E94A80108951F
S1130180CF93DF9300D000D0CDB7DEB710E00E944C
S1130190A001E1E0F0E0EC0FFD1FE10FF11D808311
S11301A0133031F4CE0101960E949C0010E0EFCF91
S11301B01F5FEDCF97980895979A0895969808959C
S11301C0969A089595980895959A08950E94DC004A
S11301D00E94E0000E94E4008FEF8ABB87BB84BBCF
S11301E01BBA18BA15BA089581B3806E81BB0895FD
S11301F01ABA86E69EE00197F1F7000089B30895E4
S11302002FEF27BB24BB95BB88BB08950F931F9387
S1130210CF93C82F8B010E94F4000E94E6000E9435
S1130220E400C8010E9400010E94DA0083E393E71E
S11302300197F1F70E94DE008FEF8ABBCBBB0E94CF
S1130240E0000E94DC000E94E6000E94DC000E94A4
S1130250E4000E94E000CF911F910F910895CF9385
S1130260DF93EC010E94E6000E94E2000E94DA00A3
S11302700E94E000CE010E94000186E69EE0019704
S1130280F1F700000E94F800C82F0E94DC000E94D1
S1130290E4000E94E0000E94E6008C2FDF91CF91E1
S11302A0089565E575E58AEA0E94060186E69EE002
S11302B00197F1F700006AEA7AE285E50E940601F7
S11302C086E69EE00197F1F7000065E575E580E8B4
S11302D00E94060186E69EE00197F1F7000065E5BD
S11302E075E58AEA0E94060186E69EE00197F1F729
S11302F000006AEA7AE285E50E94060186E69EE04D
S11303000197F1F7000065E575E580E20E940601BA
S113031086E69EE00197F1F7000060E070E080E07F
S11303200E94060186E69EE00197F1F70000089519
S113033010BC87E189B988E18AB986E880BD08954F
S11303405F9BFECF8CB108955D9BFECF8CB9089561
S1130350CF93DF93EC018881882331F021960E94AA
S1130360A40189918111FBCFDF91CF910895BB271F
S11303704A3031F4992322F4BDE2909581959F4F40
S11303800C94C301BB27FB015527AA27880F991F8B
S1130390AA1FA41710F0A41B83955051B9F7A05DB0
S11303A0AA3308F0A95DA193009779F7B111B1932D
S11303B01192CB010C94DC01DC01FC01672F7191DB
S11303C07723E1F7329704C07C916D937083629137
S10F03D0AE17BF07C8F30895F894FFCFE0
S11303DC0D52656164696E672066726F6D204545C8
S11303EC50524F4D2E2E2E0A000D307800203A20FC
S11303FC3078000D446F6E65210D0A0A000D4572AC
S109040C726F720A000089
S9030000FC
