S0170000454550524F4D204669726D776172652E73726563E8
S11300000C942A000C943F000C943F000C943F0085
S11300100C943F000C943F000C943F000C943F0060
S11300200C943F000C943F000C943F000C943F0050
S11300300C943F000C943F000C943F000C943F0040
S11300400C943F000C943F000C943F000C943F0030
S11300500C943F0011241FBECFE5D8E0DEBFCDBF16
S113006010E0A0E6B0E0ECECF0E002C005900D92E8
S1130070AE36B107D9F70E9441000C9464000C9489
S1130080000080E092EC0E944A0080E690E00E942A
S11300905500FBCF90BD89B988E18AB98EE880BD4F
S11300A008955D9BFECF8CB90895CF93DF93EC0147
S11300B08881882331F021960E9451008991811111
S10F00C0FBCFDF91CF910895F894FFCF9F
S11100CC48656C6C6F20576F726C64210000E5
S9030000FC
