:100000000C942A000C9447000C9447000C94470071
:100010000C9447000C9447000C9447000C94470044
:100020000C9447000C9447000C9447000C94470034
:100030000C9447000C9447000C9447000C94470024
:100040000C9447000C9447000C9447000C94470014
:100050000C94470011241FBECFE5D8E0DEBFCDBF12
:1000600010E0A0E6B0E0E4E0F1E002C005900D92FF
:10007000A836B107D9F720E0A8E6B0E001C01D928C
:10008000AA36B207E1F70E9449000C9480000C9454
:10009000000080E092EC0E9466000E945B000E94DB
:1000A0005200FFCF80E690E00E947100109269003C
:1000B0001092680008958AB38FEF8ABB97B387BB0D
:1000C00094B384BB81B3806E81BB089590BD89B920
:1000D00088E18AB98EE880BD08955D9BFECF8CB91A
:1000E0000895CF93DF93EC018881882331F0219626
:1000F0000E946D0089918111FBCFDF91CF9108950E
:04010000F894FFCFA1
:0801040050696E676173000091
:00000001FF
