S0170000454550524F4D204669726D776172652E73726563E8
S11300000C942A000C9447000C9447000C9447006D
S11300100C9447000C9447000C9447000C94470040
S11300200C9447000C9447000C9447000C94470030
S11300300C9447000C9447000C9447000C94470020
S11300400C9447000C9447000C9447000C94470010
S11300500C94470011241FBECFE5D8E0DEBFCDBF0E
S113006010E0A0E6B0E0EAEBF3E002C005900D92E8
S1130070A83AB107D9F720E0A8EAB0E001C01D9280
S1130080A83AB207E1F70E9449000C94DB010C94F2
S11300900000CF93DF9300D000D01F92CDB7DEB71E
S11300A00E9487010E9437010E948F0180E690E040
S11300B00E94970100E010E0B8018AE00E94C700A6
S11300C00F5F1F4F01311105B9F72FEF8FE794E050
S11300D0215080409040E1F700C0000087E790E0A5
S11300E00E94970100E010E040E1BE016F5F7F4F86
S11300F0C8010E94A60184E990E00E949701CE0104
S113010001960E94970188E990E00E949701C80136
S11301100E94160140E1BE016F5F7F4F90E00E9494
S1130120A601CE0101960E94970186EA90E00E9402
S113013097010F5F1F4F00311105B1F68EE990E072
S11301400E949701B1CF97980895979A0895969829
S11301500895969A089595980895959A08950E94F9
S1130160A5000E94A9000E94AD008FEF8ABB87BB47
S113017084BB1BBA18BA15BA089581B3806E81BBCB
S113018008952FEF27BB24BB95BB88BB08950F931D
S11301901F93CF93C82F8B010E94BD000E94AF0014
S11301A00E94AD00C8010E94C1000E94A3008FEF0D
S11301B09FE80197F1F700C000000E94A70086E6BF
S11301C09EE00197F1F700008FEF8ABBCBBB86E678
S11301D09EE00197F1F700000E94A90086E69EE0E8
S11301E00197F1F700000E94A50086E69EE00197C2
S11301F0F1F70000CF911F910F9108958FEF8ABB03
S113020087BB84BB0E94A5000E94A9000E94AD0088
S113021008951ABA8FEF87BB84BB0E94BD000E9469
S1130220A5000E94A9000E94AD000895CF93DF931A
S1130230EC010E94AF000E9409010E94AB000E94E1
S1130240A3000E94A900CE010E94C10086E69EE0A0
S11302500197F1F700001ABAC9B30E94A5000E94E1
S1130260AD000E94A9008C2FDF91CF9108950E94C8
S1130270FE0065E575E58AEA0E94C7008FEF9FE8F6
S11302800197F1F700C000006AEA7AE285E50E946E
S1130290C7008FEF9FE80197F1F700C0000065E504
S11302A075E580E80E94C7008FEF9FE80197F1F79A
S11302B000C0000065E575E58AEA0E94C7008FEF7B
S11302C09FE80197F1F700C000006AEA7AE285E549
S11302D00E94C7008FEF9FE80197F1F700C000006C
S11302E065E575E580E80E94C7008FEF9FE80197F8
S11302F0F1F700C0000060E070E080E00E94C700F9
S11303008FEF9FE80197F1F700C00000089510BC3B
S11303108FE289B988E18AB986E880BD08955F9B38
S1130320FECF8CB108955D9BFECF8CB90895CF9319
S1130330DF93EC018881882331F021960E94930198
S113034089918111FBCFDF91CF910895BB274A306A
S113035031F4992322F4BDE2909581959F4F0C943A
S1130360B201BB27FB015527AA27880F991FAA1F93
S1130370A41710F0A41B83955051B9F7A05DAA33BC
S113038008F0A95DA193009779F7B111B193119287
S1130390CB010C94CB01DC01FC01672F7191772315
S11303A0E1F7329704C07C916D9370836291AE172C
S10D03B0BF07C8F30895F894FFCFC7
S11303BA0D57726974696E6720746F2045455052EF
S11303CA4F4D2E2E2E0A000A0A0A0A0D526561643E
S11303DA696E672066726F6D20454550524F4D2EE7
S11303EA2E2E0A000D307800203A203078000D4471
S10B03FA6F6E65210D0A0A0073
S9030000FC
