S0170000454550524F4D204669726D776172652E73726563E8
S11300000C942A000C9447000C9447000C9447006D
S11300100C9447000C9447000C9447000C94470040
S11300200C9447000C9447000C9447000C94470030
S11300300C9447000C9447000C9447000C94470020
S11300400C9447000C9447000C9447000C94470010
S11300500C94470011241FBECFE5D8E0DEBFCDBF0E
S113006010E0A0E6B0E0ECEFF0E002C005900D92E5
S1130070A836B107D9F720E0A8E6B0E001C01D9288
S1130080A836B207E1F70E9449000C947C000C9456
S1130090000080E092EC0E9462000E9457000E94DF
S11300A05200FFCF80E690E00E946D0008958AB36D
S11300B08FEF8ABB97B387BB94B384BB81B3806E45
S11300C081BB089590BD89B988E18AB98EE880BD65
S11300D008955D9BFECF8CB90895CF93DF93EC0117
S11300E08881882331F021960E94690089918111C9
S10F00F0FBCFDF91CF910895F894FFCF6F
S10B00FC50696E676173000096
S9030000FC
